:100000007538007590FF75B00075A00075800012FE
:1000100002C51203191202D11203191202F91203B6
:10002000191202D51203191202D91203191202C5AC
:1000300012031912032C20A15020A23F20A3082054
:10004000A01F12032C80EFE538B4090B753800129D
:10005000024812023880DF05381202481202388046
:10006000D5E538B4000B7538091202481202388001
:10007000C5153812024812023880BB1202C512039D
:100080001975380012023880ADE51EB4241CE51F36
:10009000B42417E520B42412E521B4240DE522B4DC
:1000A0002408E523B42403020161C2B71202C91275
:1000B000031912037B1202D112031912037B1202DD
:1000C000D112031912037B1202D912031912037BF6
:1000D00012030912031912037B12031912037B1274
:1000E00002C512031912037B1202D512031912035F
:1000F0007B1202D912031912037B1202F5120319A3
:1001000012037B1202E912031912037B1202D912A5
:10011000031912037B1202D512031912037B120278
:10012000C512031912037B1202C512031912037BB5
:100130001202C512031912037B1202C5120319120F
:10014000037B1202C512031912037B1202C51203AC
:100150001912037B1202C512031912037BD2B701D5
:100160000F1202C912031912037B1202D1120319D2
:1001700012037B1202D112031912037B1202D9124D
:10018000031912037B12030912031912037B1203D2
:100190000912031912037B1202C512031912037B01
:1001A0001202E112031912037B1203051203191242
:1001B000037B1202C912031912037B1202F5120308
:1001C0001912037B12030D12031912037B1202D9B9
:1001D00012031912037B1202D512031912037B12A8
:1001E00002C512031912037B1202C512031912036E
:1001F0007B1202C512031912037B1202C5120319E6
:1002000012037B1202C512031912037B1202C512DC
:10021000031912037B1202C512031912037B120287
:10022000C5120319D297D2971202F91203191202BA
:10023000F5120319D29780E612032C20A3FA20A20C
:10024000F720A1F420A0F122E538B4000475234082
:1002500022E538B4010475237922E538B402047527
:10026000232422E538B4030475233022E538B4048E
:100270000475231922E538B4050475231222E538E4
:10028000B4060475230222E538B4070475237822E6
:10029000E538B40804752300227523102275244024
:1002A000227524792275242422752430227524197C
:1002B00022752412227524022275247822752400C6
:1002C000227524102275247F2275240822752403A8
:1002D0002275244622752421227524062275240EB7
:1002E000227524102275240B22752479227524711D
:1002F0002275244722752448227524402275240C37
:10030000227524182275244E227524122275240782
:10031000227524412275241122851F1E85201F85E8
:10032000212085222185232285242322851E9012C7
:100330000389D2B0120390C2B0851F90120389D2F4
:10034000B1120390C2B1852090120389D2B2120378
:1003500090C2B2852190120389D2B3120390C2B326
:10036000852290120389D2B4120390C2B4852390DF
:10037000120389D2B5120390C2B52212038212036E
:1003800090227864712CD8FC22C2B7D2B7C2B722AF
:0603900079FF00D9FD22F7
:00000001FF
